{
  "_format": "hh-sol-artifact-1",
  "contractName": "MyNFT",
  "sourceName": "contracts/MyNFT.sol",
  "abi": [
    {
      "inputs": [],
      "stateMutability": "nonpayable",
      "type": "constructor"
    },
    {
      "anonymous": false,
      "inputs": [
        {
          "indexed": true,
          "internalType": "address",
          "name": "owner",
          "type": "address"
        },
        {
          "indexed": true,
          "internalType": "address",
          "name": "approved",
          "type": "address"
        },
        {
          "indexed": true,
          "internalType": "uint256",
          "name": "tokenId",
          "type": "uint256"
        }
      ],
      "name": "Approval",
      "type": "event"
    },
    {
      "anonymous": false,
      "inputs": [
        {
          "indexed": true,
          "internalType": "address",
          "name": "owner",
          "type": "address"
        },
        {
          "indexed": true,
          "internalType": "address",
          "name": "operator",
          "type": "address"
        },
        {
          "indexed": false,
          "internalType": "bool",
          "name": "approved",
          "type": "bool"
        }
      ],
      "name": "ApprovalForAll",
      "type": "event"
    },
    {
      "anonymous": false,
      "inputs": [
        {
          "indexed": true,
          "internalType": "address",
          "name": "previousOwner",
          "type": "address"
        },
        {
          "indexed": true,
          "internalType": "address",
          "name": "newOwner",
          "type": "address"
        }
      ],
      "name": "OwnershipTransferred",
      "type": "event"
    },
    {
      "anonymous": false,
      "inputs": [
        {
          "indexed": true,
          "internalType": "address",
          "name": "from",
          "type": "address"
        },
        {
          "indexed": true,
          "internalType": "address",
          "name": "to",
          "type": "address"
        },
        {
          "indexed": true,
          "internalType": "uint256",
          "name": "tokenId",
          "type": "uint256"
        }
      ],
      "name": "Transfer",
      "type": "event"
    },
    {
      "inputs": [
        {
          "internalType": "address",
          "name": "to",
          "type": "address"
        },
        {
          "internalType": "uint256",
          "name": "tokenId",
          "type": "uint256"
        }
      ],
      "name": "approve",
      "outputs": [],
      "stateMutability": "nonpayable",
      "type": "function"
    },
    {
      "inputs": [
        {
          "internalType": "address",
          "name": "owner",
          "type": "address"
        }
      ],
      "name": "balanceOf",
      "outputs": [
        {
          "internalType": "uint256",
          "name": "",
          "type": "uint256"
        }
      ],
      "stateMutability": "view",
      "type": "function"
    },
    {
      "inputs": [
        {
          "internalType": "uint256",
          "name": "tokenId",
          "type": "uint256"
        }
      ],
      "name": "getApproved",
      "outputs": [
        {
          "internalType": "address",
          "name": "",
          "type": "address"
        }
      ],
      "stateMutability": "view",
      "type": "function"
    },
    {
      "inputs": [
        {
          "internalType": "address",
          "name": "owner",
          "type": "address"
        },
        {
          "internalType": "address",
          "name": "operator",
          "type": "address"
        }
      ],
      "name": "isApprovedForAll",
      "outputs": [
        {
          "internalType": "bool",
          "name": "",
          "type": "bool"
        }
      ],
      "stateMutability": "view",
      "type": "function"
    },
    {
      "inputs": [],
      "name": "name",
      "outputs": [
        {
          "internalType": "string",
          "name": "",
          "type": "string"
        }
      ],
      "stateMutability": "view",
      "type": "function"
    },
    {
      "inputs": [],
      "name": "owner",
      "outputs": [
        {
          "internalType": "address",
          "name": "",
          "type": "address"
        }
      ],
      "stateMutability": "view",
      "type": "function"
    },
    {
      "inputs": [
        {
          "internalType": "uint256",
          "name": "tokenId",
          "type": "uint256"
        }
      ],
      "name": "ownerOf",
      "outputs": [
        {
          "internalType": "address",
          "name": "",
          "type": "address"
        }
      ],
      "stateMutability": "view",
      "type": "function"
    },
    {
      "inputs": [],
      "name": "renounceOwnership",
      "outputs": [],
      "stateMutability": "nonpayable",
      "type": "function"
    },
    {
      "inputs": [
        {
          "internalType": "address",
          "name": "to",
          "type": "address"
        },
        {
          "internalType": "uint256",
          "name": "tokenId",
          "type": "uint256"
        },
        {
          "internalType": "string",
          "name": "uri",
          "type": "string"
        }
      ],
      "name": "safeMint",
      "outputs": [],
      "stateMutability": "nonpayable",
      "type": "function"
    },
    {
      "inputs": [
        {
          "internalType": "address",
          "name": "from",
          "type": "address"
        },
        {
          "internalType": "address",
          "name": "to",
          "type": "address"
        },
        {
          "internalType": "uint256",
          "name": "tokenId",
          "type": "uint256"
        }
      ],
      "name": "safeTransferFrom",
      "outputs": [],
      "stateMutability": "nonpayable",
      "type": "function"
    },
    {
      "inputs": [
        {
          "internalType": "address",
          "name": "from",
          "type": "address"
        },
        {
          "internalType": "address",
          "name": "to",
          "type": "address"
        },
        {
          "internalType": "uint256",
          "name": "tokenId",
          "type": "uint256"
        },
        {
          "internalType": "bytes",
          "name": "_data",
          "type": "bytes"
        }
      ],
      "name": "safeTransferFrom",
      "outputs": [],
      "stateMutability": "nonpayable",
      "type": "function"
    },
    {
      "inputs": [
        {
          "internalType": "address",
          "name": "operator",
          "type": "address"
        },
        {
          "internalType": "bool",
          "name": "approved",
          "type": "bool"
        }
      ],
      "name": "setApprovalForAll",
      "outputs": [],
      "stateMutability": "nonpayable",
      "type": "function"
    },
    {
      "inputs": [
        {
          "internalType": "bytes4",
          "name": "interfaceId",
          "type": "bytes4"
        }
      ],
      "name": "supportsInterface",
      "outputs": [
        {
          "internalType": "bool",
          "name": "",
          "type": "bool"
        }
      ],
      "stateMutability": "view",
      "type": "function"
    },
    {
      "inputs": [],
      "name": "symbol",
      "outputs": [
        {
          "internalType": "string",
          "name": "",
          "type": "string"
        }
      ],
      "stateMutability": "view",
      "type": "function"
    },
    {
      "inputs": [
        {
          "internalType": "uint256",
          "name": "tokenId",
          "type": "uint256"
        }
      ],
      "name": "tokenURI",
      "outputs": [
        {
          "internalType": "string",
          "name": "",
          "type": "string"
        }
      ],
      "stateMutability": "view",
      "type": "function"
    },
    {
      "inputs": [
        {
          "internalType": "address",
          "name": "from",
          "type": "address"
        },
        {
          "internalType": "address",
          "name": "to",
          "type": "address"
        },
        {
          "internalType": "uint256",
          "name": "tokenId",
          "type": "uint256"
        }
      ],
      "name": "transferFrom",
      "outputs": [],
      "stateMutability": "nonpayable",
      "type": "function"
    },
    {
      "inputs": [
        {
          "internalType": "address",
          "name": "newOwner",
          "type": "address"
        }
      ],
      "name": "transferOwnership",
      "outputs": [],
      "stateMutability": "nonpayable",
      "type": "function"
    }
  ],
  "bytecode": "0x60806040523480156200001157600080fd5b506040518060400160405280600581526020017f4d794e46540000000000000000000000000000000000000000000000000000008152506040518060400160405280600481526020017f4d4e465400000000000000000000000000000000000000000000000000000000815250816000908051906020019062000096929190620001a6565b508060019080519060200190620000af929190620001a6565b505050620000d2620000c6620000d860201b60201c565b620000e060201b60201c565b620002bb565b600033905090565b6000600760009054906101000a900473ffffffffffffffffffffffffffffffffffffffff16905081600760006101000a81548173ffffffffffffffffffffffffffffffffffffffff021916908373ffffffffffffffffffffffffffffffffffffffff1602179055508173ffffffffffffffffffffffffffffffffffffffff168173ffffffffffffffffffffffffffffffffffffffff167f8be0079c531659141344cd1fd0a4f28419497f9722a3daafe3b4186f6b6457e060405160405180910390a35050565b828054620001b49062000256565b90600052602060002090601f016020900481019282620001d8576000855562000224565b82601f10620001f357805160ff191683800117855562000224565b8280016001018555821562000224579182015b828111156200022357825182559160200191906001019062000206565b5b50905062000233919062000237565b5090565b5b808211156200025257600081600090555060010162000238565b5090565b600060028204905060018216806200026f57607f821691505b602082108114156200028657620002856200028c565b5b50919050565b7f4e487b7100000000000000000000000000000000000000000000000000000000600052602260045260246000fd5b61303080620002cb6000396000f3fe608060405234801561001057600080fd5b506004361061010b5760003560e01c8063715018a6116100a2578063b88d4fde11610071578063b88d4fde146102a4578063c87b56dd146102c0578063cd279c7c146102f0578063e985e9c51461030c578063f2fde38b1461033c5761010b565b8063715018a6146102425780638da5cb5b1461024c57806395d89b411461026a578063a22cb465146102885761010b565b806323b872dd116100de57806323b872dd146101aa57806342842e0e146101c65780636352211e146101e257806370a08231146102125761010b565b806301ffc9a71461011057806306fdde0314610140578063081812fc1461015e578063095ea7b31461018e575b600080fd5b61012a60048036038101906101259190611fdf565b610358565b604051610137919061242b565b60405180910390f35b61014861043a565b6040516101559190612446565b60405180910390f35b61017860048036038101906101739190612031565b6104cc565b60405161018591906123c4565b60405180910390f35b6101a860048036038101906101a39190611f3c565b610551565b005b6101c460048036038101906101bf9190611e36565b610669565b005b6101e060048036038101906101db9190611e36565b6106c9565b005b6101fc60048036038101906101f79190612031565b6106e9565b60405161020991906123c4565b60405180910390f35b61022c60048036038101906102279190611dd1565b61079b565b60405161023991906126a8565b60405180910390f35b61024a610853565b005b6102546108db565b60405161026191906123c4565b60405180910390f35b610272610905565b60405161027f9190612446565b60405180910390f35b6102a2600480360381019061029d9190611f00565b610997565b005b6102be60048036038101906102b99190611e85565b6109ad565b005b6102da60048036038101906102d59190612031565b610a0f565b6040516102e79190612446565b60405180910390f35b61030a60048036038101906103059190611f78565b610a21565b005b61032660048036038101906103219190611dfa565b610ab6565b604051610333919061242b565b60405180910390f35b61035660048036038101906103519190611dd1565b610b4a565b005b60007f80ac58cd000000000000000000000000000000000000000000000000000000007bffffffffffffffffffffffffffffffffffffffffffffffffffffffff1916827bffffffffffffffffffffffffffffffffffffffffffffffffffffffff1916148061042357507f5b5e139f000000000000000000000000000000000000000000000000000000007bffffffffffffffffffffffffffffffffffffffffffffffffffffffff1916827bffffffffffffffffffffffffffffffffffffffffffffffffffffffff1916145b80610433575061043282610c42565b5b9050919050565b606060008054610449906128fe565b80601f0160208091040260200160405190810160405280929190818152602001828054610475906128fe565b80156104c25780601f10610497576101008083540402835291602001916104c2565b820191906000526020600020905b8154815290600101906020018083116104a557829003601f168201915b5050505050905090565b60006104d782610cac565b610516576040517f08c379a000000000000000000000000000000000000000000000000000000000815260040161050d90612608565b60405180910390fd5b6004600083815260200190815260200160002060009054906101000a900473ffffffffffffffffffffffffffffffffffffffff169050919050565b600061055c826106e9565b90508073ffffffffffffffffffffffffffffffffffffffff168373ffffffffffffffffffffffffffffffffffffffff1614156105cd576040517f08c379a00000000000000000000000000000000000000000000000000000000081526004016105c490612668565b60405180910390fd5b8073ffffffffffffffffffffffffffffffffffffffff166105ec610d18565b73ffffffffffffffffffffffffffffffffffffffff16148061061b575061061a81610615610d18565b610ab6565b5b61065a576040517f08c379a000000000000000000000000000000000000000000000000000000000815260040161065190612548565b60405180910390fd5b6106648383610d20565b505050565b61067a610674610d18565b82610dd9565b6106b9576040517f08c379a00000000000000000000000000000000000000000000000000000000081526004016106b090612688565b60405180910390fd5b6106c4838383610eb7565b505050565b6106e4838383604051806020016040528060008152506109ad565b505050565b6000806002600084815260200190815260200160002060009054906101000a900473ffffffffffffffffffffffffffffffffffffffff169050600073ffffffffffffffffffffffffffffffffffffffff168173ffffffffffffffffffffffffffffffffffffffff161415610792576040517f08c379a000000000000000000000000000000000000000000000000000000000815260040161078990612588565b60405180910390fd5b80915050919050565b60008073ffffffffffffffffffffffffffffffffffffffff168273ffffffffffffffffffffffffffffffffffffffff16141561080c576040517f08c379a000000000000000000000000000000000000000000000000000000000815260040161080390612568565b60405180910390fd5b600360008373ffffffffffffffffffffffffffffffffffffffff1673ffffffffffffffffffffffffffffffffffffffff168152602001908152602001600020549050919050565b61085b610d18565b73ffffffffffffffffffffffffffffffffffffffff166108796108db565b73ffffffffffffffffffffffffffffffffffffffff16146108cf576040517f08c379a00000000000000000000000000000000000000000000000000000000081526004016108c690612628565b60405180910390fd5b6108d9600061111e565b565b6000600760009054906101000a900473ffffffffffffffffffffffffffffffffffffffff16905090565b606060018054610914906128fe565b80601f0160208091040260200160405190810160405280929190818152602001828054610940906128fe565b801561098d5780601f106109625761010080835404028352916020019161098d565b820191906000526020600020905b81548152906001019060200180831161097057829003601f168201915b5050505050905090565b6109a96109a2610d18565b83836111e4565b5050565b6109be6109b8610d18565b83610dd9565b6109fd576040517f08c379a00000000000000000000000000000000000000000000000000000000081526004016109f490612688565b60405180910390fd5b610a0984848484611351565b50505050565b6060610a1a826113ad565b9050919050565b610a29610d18565b73ffffffffffffffffffffffffffffffffffffffff16610a476108db565b73ffffffffffffffffffffffffffffffffffffffff1614610a9d576040517f08c379a0000000000000000000000000000000000000000000000000000000008152600401610a9490612628565b60405180910390fd5b610aa783836114ff565b610ab1828261151d565b505050565b6000600560008473ffffffffffffffffffffffffffffffffffffffff1673ffffffffffffffffffffffffffffffffffffffff16815260200190815260200160002060008373ffffffffffffffffffffffffffffffffffffffff1673ffffffffffffffffffffffffffffffffffffffff16815260200190815260200160002060009054906101000a900460ff16905092915050565b610b52610d18565b73ffffffffffffffffffffffffffffffffffffffff16610b706108db565b73ffffffffffffffffffffffffffffffffffffffff1614610bc6576040517f08c379a0000000000000000000000000000000000000000000000000000000008152600401610bbd90612628565b60405180910390fd5b600073ffffffffffffffffffffffffffffffffffffffff168173ffffffffffffffffffffffffffffffffffffffff161415610c36576040517f08c379a0000000000000000000000000000000000000000000000000000000008152600401610c2d90612488565b60405180910390fd5b610c3f8161111e565b50565b60007f01ffc9a7000000000000000000000000000000000000000000000000000000007bffffffffffffffffffffffffffffffffffffffffffffffffffffffff1916827bffffffffffffffffffffffffffffffffffffffffffffffffffffffff1916149050919050565b60008073ffffffffffffffffffffffffffffffffffffffff166002600084815260200190815260200160002060009054906101000a900473ffffffffffffffffffffffffffffffffffffffff1673ffffffffffffffffffffffffffffffffffffffff1614159050919050565b600033905090565b816004600083815260200190815260200160002060006101000a81548173ffffffffffffffffffffffffffffffffffffffff021916908373ffffffffffffffffffffffffffffffffffffffff160217905550808273ffffffffffffffffffffffffffffffffffffffff16610d93836106e9565b73ffffffffffffffffffffffffffffffffffffffff167f8c5be1e5ebec7d5bd14f71427d1e84f3dd0314c0f7b2291e5b200ac8c7c3b92560405160405180910390a45050565b6000610de482610cac565b610e23576040517f08c379a0000000000000000000000000000000000000000000000000000000008152600401610e1a90612528565b60405180910390fd5b6000610e2e836106e9565b90508073ffffffffffffffffffffffffffffffffffffffff168473ffffffffffffffffffffffffffffffffffffffff161480610e9d57508373ffffffffffffffffffffffffffffffffffffffff16610e85846104cc565b73ffffffffffffffffffffffffffffffffffffffff16145b80610eae5750610ead8185610ab6565b5b91505092915050565b8273ffffffffffffffffffffffffffffffffffffffff16610ed7826106e9565b73ffffffffffffffffffffffffffffffffffffffff1614610f2d576040517f08c379a0000000000000000000000000000000000000000000000000000000008152600401610f24906124a8565b60405180910390fd5b600073ffffffffffffffffffffffffffffffffffffffff168273ffffffffffffffffffffffffffffffffffffffff161415610f9d576040517f08c379a0000000000000000000000000000000000000000000000000000000008152600401610f94906124e8565b60405180910390fd5b610fa8838383611591565b610fb3600082610d20565b6001600360008573ffffffffffffffffffffffffffffffffffffffff1673ffffffffffffffffffffffffffffffffffffffff16815260200190815260200160002060008282546110039190612814565b925050819055506001600360008473ffffffffffffffffffffffffffffffffffffffff1673ffffffffffffffffffffffffffffffffffffffff168152602001908152602001600020600082825461105a919061278d565b92505081905550816002600083815260200190815260200160002060006101000a81548173ffffffffffffffffffffffffffffffffffffffff021916908373ffffffffffffffffffffffffffffffffffffffff160217905550808273ffffffffffffffffffffffffffffffffffffffff168473ffffffffffffffffffffffffffffffffffffffff167fddf252ad1be2c89b69c2b068fc378daa952ba7f163c4a11628f55a4df523b3ef60405160405180910390a4611119838383611596565b505050565b6000600760009054906101000a900473ffffffffffffffffffffffffffffffffffffffff16905081600760006101000a81548173ffffffffffffffffffffffffffffffffffffffff021916908373ffffffffffffffffffffffffffffffffffffffff1602179055508173ffffffffffffffffffffffffffffffffffffffff168173ffffffffffffffffffffffffffffffffffffffff167f8be0079c531659141344cd1fd0a4f28419497f9722a3daafe3b4186f6b6457e060405160405180910390a35050565b8173ffffffffffffffffffffffffffffffffffffffff168373ffffffffffffffffffffffffffffffffffffffff161415611253576040517f08c379a000000000000000000000000000000000000000000000000000000000815260040161124a90612508565b60405180910390fd5b80600560008573ffffffffffffffffffffffffffffffffffffffff1673ffffffffffffffffffffffffffffffffffffffff16815260200190815260200160002060008473ffffffffffffffffffffffffffffffffffffffff1673ffffffffffffffffffffffffffffffffffffffff16815260200190815260200160002060006101000a81548160ff0219169083151502179055508173ffffffffffffffffffffffffffffffffffffffff168373ffffffffffffffffffffffffffffffffffffffff167f17307eab39ab6107e8899845ad3d59bd9653f200f220920489ca2b5937696c3183604051611344919061242b565b60405180910390a3505050565b61135c848484610eb7565b6113688484848461159b565b6113a7576040517f08c379a000000000000000000000000000000000000000000000000000000000815260040161139e90612468565b60405180910390fd5b50505050565b60606113b882610cac565b6113f7576040517f08c379a00000000000000000000000000000000000000000000000000000000081526004016113ee906125e8565b60405180910390fd5b6000600660008481526020019081526020016000208054611417906128fe565b80601f0160208091040260200160405190810160405280929190818152602001828054611443906128fe565b80156114905780601f1061146557610100808354040283529160200191611490565b820191906000526020600020905b81548152906001019060200180831161147357829003601f168201915b5050505050905060006114a1611732565b90506000815114156114b75781925050506114fa565b6000825111156114ec5780826040516020016114d49291906123a0565b604051602081830303815290604052925050506114fa565b6114f584611749565b925050505b919050565b6115198282604051806020016040528060008152506117f0565b5050565b61152682610cac565b611565576040517f08c379a000000000000000000000000000000000000000000000000000000000815260040161155c906125a8565b60405180910390fd5b8060066000848152602001908152602001600020908051906020019061158c929190611bf5565b505050565b505050565b505050565b60006115bc8473ffffffffffffffffffffffffffffffffffffffff1661184b565b15611725578373ffffffffffffffffffffffffffffffffffffffff1663150b7a026115e5610d18565b8786866040518563ffffffff1660e01b815260040161160794939291906123df565b602060405180830381600087803b15801561162157600080fd5b505af192505050801561165257506040513d601f19601f8201168201806040525081019061164f9190612008565b60015b6116d5573d8060008114611682576040519150601f19603f3d011682016040523d82523d6000602084013e611687565b606091505b506000815114156116cd576040517f08c379a00000000000000000000000000000000000000000000000000000000081526004016116c490612468565b60405180910390fd5b805181602001fd5b63150b7a0260e01b7bffffffffffffffffffffffffffffffffffffffffffffffffffffffff1916817bffffffffffffffffffffffffffffffffffffffffffffffffffffffff19161491505061172a565b600190505b949350505050565b606060405180602001604052806000815250905090565b606061175482610cac565b611793576040517f08c379a000000000000000000000000000000000000000000000000000000000815260040161178a90612648565b60405180910390fd5b600061179d611732565b905060008151116117bd57604051806020016040528060008152506117e8565b806117c78461186e565b6040516020016117d89291906123a0565b6040516020818303038152906040525b915050919050565b6117fa8383611a1b565b611807600084848461159b565b611846576040517f08c379a000000000000000000000000000000000000000000000000000000000815260040161183d90612468565b60405180910390fd5b505050565b6000808273ffffffffffffffffffffffffffffffffffffffff163b119050919050565b606060008214156118b6576040518060400160405280600181526020017f30000000000000000000000000000000000000000000000000000000000000008152509050611a16565b600082905060005b600082146118e85780806118d190612961565b915050600a826118e191906127e3565b91506118be565b60008167ffffffffffffffff81111561192a577f4e487b7100000000000000000000000000000000000000000000000000000000600052604160045260246000fd5b6040519080825280601f01601f19166020018201604052801561195c5781602001600182028036833780820191505090505b5090505b60008514611a0f576001826119759190612814565b9150600a8561198491906129aa565b6030611990919061278d565b60f81b8183815181106119cc577f4e487b7100000000000000000000000000000000000000000000000000000000600052603260045260246000fd5b60200101907effffffffffffffffffffffffffffffffffffffffffffffffffffffffffffff1916908160001a905350600a85611a0891906127e3565b9450611960565b8093505050505b919050565b600073ffffffffffffffffffffffffffffffffffffffff168273ffffffffffffffffffffffffffffffffffffffff161415611a8b576040517f08c379a0000000000000000000000000000000000000000000000000000000008152600401611a82906125c8565b60405180910390fd5b611a9481610cac565b15611ad4576040517f08c379a0000000000000000000000000000000000000000000000000000000008152600401611acb906124c8565b60405180910390fd5b611ae060008383611591565b6001600360008473ffffffffffffffffffffffffffffffffffffffff1673ffffffffffffffffffffffffffffffffffffffff1681526020019081526020016000206000828254611b30919061278d565b92505081905550816002600083815260200190815260200160002060006101000a81548173ffffffffffffffffffffffffffffffffffffffff021916908373ffffffffffffffffffffffffffffffffffffffff160217905550808273ffffffffffffffffffffffffffffffffffffffff16600073ffffffffffffffffffffffffffffffffffffffff167fddf252ad1be2c89b69c2b068fc378daa952ba7f163c4a11628f55a4df523b3ef60405160405180910390a4611bf160008383611596565b5050565b828054611c01906128fe565b90600052602060002090601f016020900481019282611c235760008555611c6a565b82601f10611c3c57805160ff1916838001178555611c6a565b82800160010185558215611c6a579182015b82811115611c69578251825591602001919060010190611c4e565b5b509050611c779190611c7b565b5090565b5b80821115611c94576000816000905550600101611c7c565b5090565b6000611cab611ca6846126e8565b6126c3565b905082815260208101848484011115611cc357600080fd5b611cce8482856128bc565b509392505050565b6000611ce9611ce484612719565b6126c3565b905082815260208101848484011115611d0157600080fd5b611d0c8482856128bc565b509392505050565b600081359050611d2381612f9e565b92915050565b600081359050611d3881612fb5565b92915050565b600081359050611d4d81612fcc565b92915050565b600081519050611d6281612fcc565b92915050565b600082601f830112611d7957600080fd5b8135611d89848260208601611c98565b91505092915050565b600082601f830112611da357600080fd5b8135611db3848260208601611cd6565b91505092915050565b600081359050611dcb81612fe3565b92915050565b600060208284031215611de357600080fd5b6000611df184828501611d14565b91505092915050565b60008060408385031215611e0d57600080fd5b6000611e1b85828601611d14565b9250506020611e2c85828601611d14565b9150509250929050565b600080600060608486031215611e4b57600080fd5b6000611e5986828701611d14565b9350506020611e6a86828701611d14565b9250506040611e7b86828701611dbc565b9150509250925092565b60008060008060808587031215611e9b57600080fd5b6000611ea987828801611d14565b9450506020611eba87828801611d14565b9350506040611ecb87828801611dbc565b925050606085013567ffffffffffffffff811115611ee857600080fd5b611ef487828801611d68565b91505092959194509250565b60008060408385031215611f1357600080fd5b6000611f2185828601611d14565b9250506020611f3285828601611d29565b9150509250929050565b60008060408385031215611f4f57600080fd5b6000611f5d85828601611d14565b9250506020611f6e85828601611dbc565b9150509250929050565b600080600060608486031215611f8d57600080fd5b6000611f9b86828701611d14565b9350506020611fac86828701611dbc565b925050604084013567ffffffffffffffff811115611fc957600080fd5b611fd586828701611d92565b9150509250925092565b600060208284031215611ff157600080fd5b6000611fff84828501611d3e565b91505092915050565b60006020828403121561201a57600080fd5b600061202884828501611d53565b91505092915050565b60006020828403121561204357600080fd5b600061205184828501611dbc565b91505092915050565b61206381612848565b82525050565b6120728161285a565b82525050565b60006120838261274a565b61208d8185612760565b935061209d8185602086016128cb565b6120a681612a97565b840191505092915050565b60006120bc82612755565b6120c68185612771565b93506120d68185602086016128cb565b6120df81612a97565b840191505092915050565b60006120f582612755565b6120ff8185612782565b935061210f8185602086016128cb565b80840191505092915050565b6000612128603283612771565b915061213382612aa8565b604082019050919050565b600061214b602683612771565b915061215682612af7565b604082019050919050565b600061216e602583612771565b915061217982612b46565b604082019050919050565b6000612191601c83612771565b915061219c82612b95565b602082019050919050565b60006121b4602483612771565b91506121bf82612bbe565b604082019050919050565b60006121d7601983612771565b91506121e282612c0d565b602082019050919050565b60006121fa602c83612771565b915061220582612c36565b604082019050919050565b600061221d603883612771565b915061222882612c85565b604082019050919050565b6000612240602a83612771565b915061224b82612cd4565b604082019050919050565b6000612263602983612771565b915061226e82612d23565b604082019050919050565b6000612286602e83612771565b915061229182612d72565b604082019050919050565b60006122a9602083612771565b91506122b482612dc1565b602082019050919050565b60006122cc603183612771565b91506122d782612dea565b604082019050919050565b60006122ef602c83612771565b91506122fa82612e39565b604082019050919050565b6000612312602083612771565b915061231d82612e88565b602082019050919050565b6000612335602f83612771565b915061234082612eb1565b604082019050919050565b6000612358602183612771565b915061236382612f00565b604082019050919050565b600061237b603183612771565b915061238682612f4f565b604082019050919050565b61239a816128b2565b82525050565b60006123ac82856120ea565b91506123b882846120ea565b91508190509392505050565b60006020820190506123d9600083018461205a565b92915050565b60006080820190506123f4600083018761205a565b612401602083018661205a565b61240e6040830185612391565b81810360608301526124208184612078565b905095945050505050565b60006020820190506124406000830184612069565b92915050565b6000602082019050818103600083015261246081846120b1565b905092915050565b600060208201905081810360008301526124818161211b565b9050919050565b600060208201905081810360008301526124a18161213e565b9050919050565b600060208201905081810360008301526124c181612161565b9050919050565b600060208201905081810360008301526124e181612184565b9050919050565b60006020820190508181036000830152612501816121a7565b9050919050565b60006020820190508181036000830152612521816121ca565b9050919050565b60006020820190508181036000830152612541816121ed565b9050919050565b6000602082019050818103600083015261256181612210565b9050919050565b6000602082019050818103600083015261258181612233565b9050919050565b600060208201905081810360008301526125a181612256565b9050919050565b600060208201905081810360008301526125c181612279565b9050919050565b600060208201905081810360008301526125e18161229c565b9050919050565b60006020820190508181036000830152612601816122bf565b9050919050565b60006020820190508181036000830152612621816122e2565b9050919050565b6000602082019050818103600083015261264181612305565b9050919050565b6000602082019050818103600083015261266181612328565b9050919050565b600060208201905081810360008301526126818161234b565b9050919050565b600060208201905081810360008301526126a18161236e565b9050919050565b60006020820190506126bd6000830184612391565b92915050565b60006126cd6126de565b90506126d98282612930565b919050565b6000604051905090565b600067ffffffffffffffff82111561270357612702612a68565b5b61270c82612a97565b9050602081019050919050565b600067ffffffffffffffff82111561273457612733612a68565b5b61273d82612a97565b9050602081019050919050565b600081519050919050565b600081519050919050565b600082825260208201905092915050565b600082825260208201905092915050565b600081905092915050565b6000612798826128b2565b91506127a3836128b2565b9250827fffffffffffffffffffffffffffffffffffffffffffffffffffffffffffffffff038211156127d8576127d76129db565b5b828201905092915050565b60006127ee826128b2565b91506127f9836128b2565b92508261280957612808612a0a565b5b828204905092915050565b600061281f826128b2565b915061282a836128b2565b92508282101561283d5761283c6129db565b5b828203905092915050565b600061285382612892565b9050919050565b60008115159050919050565b60007fffffffff0000000000000000000000000000000000000000000000000000000082169050919050565b600073ffffffffffffffffffffffffffffffffffffffff82169050919050565b6000819050919050565b82818337600083830152505050565b60005b838110156128e95780820151818401526020810190506128ce565b838111156128f8576000848401525b50505050565b6000600282049050600182168061291657607f821691505b6020821081141561292a57612929612a39565b5b50919050565b61293982612a97565b810181811067ffffffffffffffff8211171561295857612957612a68565b5b80604052505050565b600061296c826128b2565b91507fffffffffffffffffffffffffffffffffffffffffffffffffffffffffffffffff82141561299f5761299e6129db565b5b600182019050919050565b60006129b5826128b2565b91506129c0836128b2565b9250826129d0576129cf612a0a565b5b828206905092915050565b7f4e487b7100000000000000000000000000000000000000000000000000000000600052601160045260246000fd5b7f4e487b7100000000000000000000000000000000000000000000000000000000600052601260045260246000fd5b7f4e487b7100000000000000000000000000000000000000000000000000000000600052602260045260246000fd5b7f4e487b7100000000000000000000000000000000000000000000000000000000600052604160045260246000fd5b6000601f19601f8301169050919050565b7f4552433732313a207472616e7366657220746f206e6f6e20455243373231526560008201527f63656976657220696d706c656d656e7465720000000000000000000000000000602082015250565b7f4f776e61626c653a206e6577206f776e657220697320746865207a65726f206160008201527f6464726573730000000000000000000000000000000000000000000000000000602082015250565b7f4552433732313a207472616e736665722066726f6d20696e636f72726563742060008201527f6f776e6572000000000000000000000000000000000000000000000000000000602082015250565b7f4552433732313a20746f6b656e20616c7265616479206d696e74656400000000600082015250565b7f4552433732313a207472616e7366657220746f20746865207a65726f2061646460008201527f7265737300000000000000000000000000000000000000000000000000000000602082015250565b7f4552433732313a20617070726f766520746f2063616c6c657200000000000000600082015250565b7f4552433732313a206f70657261746f7220717565727920666f72206e6f6e657860008201527f697374656e7420746f6b656e0000000000000000000000000000000000000000602082015250565b7f4552433732313a20617070726f76652063616c6c6572206973206e6f74206f7760008201527f6e6572206e6f7220617070726f76656420666f7220616c6c0000000000000000602082015250565b7f4552433732313a2062616c616e636520717565727920666f7220746865207a6560008201527f726f206164647265737300000000000000000000000000000000000000000000602082015250565b7f4552433732313a206f776e657220717565727920666f72206e6f6e657869737460008201527f656e7420746f6b656e0000000000000000000000000000000000000000000000602082015250565b7f45524337323155524953746f726167653a2055524920736574206f66206e6f6e60008201527f6578697374656e7420746f6b656e000000000000000000000000000000000000602082015250565b7f4552433732313a206d696e7420746f20746865207a65726f2061646472657373600082015250565b7f45524337323155524953746f726167653a2055524920717565727920666f722060008201527f6e6f6e6578697374656e7420746f6b656e000000000000000000000000000000602082015250565b7f4552433732313a20617070726f76656420717565727920666f72206e6f6e657860008201527f697374656e7420746f6b656e0000000000000000000000000000000000000000602082015250565b7f4f776e61626c653a2063616c6c6572206973206e6f7420746865206f776e6572600082015250565b7f4552433732314d657461646174613a2055524920717565727920666f72206e6f60008201527f6e6578697374656e7420746f6b656e0000000000000000000000000000000000602082015250565b7f4552433732313a20617070726f76616c20746f2063757272656e74206f776e6560008201527f7200000000000000000000000000000000000000000000000000000000000000602082015250565b7f4552433732313a207472616e736665722063616c6c6572206973206e6f74206f60008201527f776e6572206e6f7220617070726f766564000000000000000000000000000000602082015250565b612fa781612848565b8114612fb257600080fd5b50565b612fbe8161285a565b8114612fc957600080fd5b50565b612fd581612866565b8114612fe057600080fd5b50565b612fec816128b2565b8114612ff757600080fd5b5056fea2646970667358221220343d022dff6787b3deadd46303570c282db1045e0c40776a38098263120b635764736f6c63430008040033",
  "linkReferences": {},
  "deployedLinkReferences": {}
}