{
  "_format": "hh-sol-artifact-1",
  "contractName": "MyERC20",
  "sourceName": "contracts/MyERC20.sol",
  "abi": [
    {
      "inputs": [],
      "stateMutability": "nonpayable",
      "type": "constructor"
    },
    {
      "anonymous": false,
      "inputs": [
        {
          "indexed": true,
          "internalType": "address",
          "name": "owner",
          "type": "address"
        },
        {
          "indexed": true,
          "internalType": "address",
          "name": "spender",
          "type": "address"
        },
        {
          "indexed": false,
          "internalType": "uint256",
          "name": "value",
          "type": "uint256"
        }
      ],
      "name": "Approval",
      "type": "event"
    },
    {
      "anonymous": false,
      "inputs": [
        {
          "indexed": true,
          "internalType": "address",
          "name": "from",
          "type": "address"
        },
        {
          "indexed": true,
          "internalType": "address",
          "name": "to",
          "type": "address"
        },
        {
          "indexed": false,
          "internalType": "uint256",
          "name": "value",
          "type": "uint256"
        }
      ],
      "name": "Transfer",
      "type": "event"
    },
    {
      "inputs": [
        {
          "internalType": "address",
          "name": "owner",
          "type": "address"
        },
        {
          "internalType": "address",
          "name": "spender",
          "type": "address"
        }
      ],
      "name": "allowance",
      "outputs": [
        {
          "internalType": "uint256",
          "name": "",
          "type": "uint256"
        }
      ],
      "stateMutability": "view",
      "type": "function"
    },
    {
      "inputs": [
        {
          "internalType": "address",
          "name": "spender",
          "type": "address"
        },
        {
          "internalType": "uint256",
          "name": "amount",
          "type": "uint256"
        }
      ],
      "name": "approve",
      "outputs": [
        {
          "internalType": "bool",
          "name": "",
          "type": "bool"
        }
      ],
      "stateMutability": "nonpayable",
      "type": "function"
    },
    {
      "inputs": [
        {
          "internalType": "address",
          "name": "account",
          "type": "address"
        }
      ],
      "name": "balanceOf",
      "outputs": [
        {
          "internalType": "uint256",
          "name": "",
          "type": "uint256"
        }
      ],
      "stateMutability": "view",
      "type": "function"
    },
    {
      "inputs": [
        {
          "internalType": "address",
          "name": "receiver",
          "type": "address"
        }
      ],
      "name": "buy",
      "outputs": [
        {
          "internalType": "uint256",
          "name": "",
          "type": "uint256"
        }
      ],
      "stateMutability": "payable",
      "type": "function"
    },
    {
      "inputs": [],
      "name": "decimals",
      "outputs": [
        {
          "internalType": "uint8",
          "name": "",
          "type": "uint8"
        }
      ],
      "stateMutability": "view",
      "type": "function"
    },
    {
      "inputs": [
        {
          "internalType": "address",
          "name": "spender",
          "type": "address"
        },
        {
          "internalType": "uint256",
          "name": "subtractedValue",
          "type": "uint256"
        }
      ],
      "name": "decreaseAllowance",
      "outputs": [
        {
          "internalType": "bool",
          "name": "",
          "type": "bool"
        }
      ],
      "stateMutability": "nonpayable",
      "type": "function"
    },
    {
      "inputs": [
        {
          "internalType": "address",
          "name": "spender",
          "type": "address"
        },
        {
          "internalType": "uint256",
          "name": "addedValue",
          "type": "uint256"
        }
      ],
      "name": "increaseAllowance",
      "outputs": [
        {
          "internalType": "bool",
          "name": "",
          "type": "bool"
        }
      ],
      "stateMutability": "nonpayable",
      "type": "function"
    },
    {
      "inputs": [],
      "name": "name",
      "outputs": [
        {
          "internalType": "string",
          "name": "",
          "type": "string"
        }
      ],
      "stateMutability": "view",
      "type": "function"
    },
    {
      "inputs": [],
      "name": "symbol",
      "outputs": [
        {
          "internalType": "string",
          "name": "",
          "type": "string"
        }
      ],
      "stateMutability": "view",
      "type": "function"
    },
    {
      "inputs": [],
      "name": "totalSupply",
      "outputs": [
        {
          "internalType": "uint256",
          "name": "",
          "type": "uint256"
        }
      ],
      "stateMutability": "view",
      "type": "function"
    },
    {
      "inputs": [
        {
          "internalType": "address",
          "name": "to",
          "type": "address"
        },
        {
          "internalType": "uint256",
          "name": "amount",
          "type": "uint256"
        }
      ],
      "name": "transfer",
      "outputs": [
        {
          "internalType": "bool",
          "name": "",
          "type": "bool"
        }
      ],
      "stateMutability": "nonpayable",
      "type": "function"
    },
    {
      "inputs": [
        {
          "internalType": "address",
          "name": "from",
          "type": "address"
        },
        {
          "internalType": "address",
          "name": "to",
          "type": "address"
        },
        {
          "internalType": "uint256",
          "name": "amount",
          "type": "uint256"
        }
      ],
      "name": "transferFrom",
      "outputs": [
        {
          "internalType": "bool",
          "name": "",
          "type": "bool"
        }
      ],
      "stateMutability": "nonpayable",
      "type": "function"
    }
  ],
  "bytecode": "0x60806040523480156200001157600080fd5b506040518060400160405280600b81526020017f486578646565546f6b656e000000000000000000000000000000000000000000815250600390805190602001906200005f9291906200010a565b506040518060400160405280600381526020017f484454000000000000000000000000000000000000000000000000000000000081525060049080519060200190620000ad9291906200010a565b5069d3c21bcecceda10000006002819055506002546000803373ffffffffffffffffffffffffffffffffffffffff1673ffffffffffffffffffffffffffffffffffffffff168152602001908152602001600020819055506200021f565b8280546200011890620001ba565b90600052602060002090601f0160209004810192826200013c576000855562000188565b82601f106200015757805160ff191683800117855562000188565b8280016001018555821562000188579182015b82811115620001875782518255916020019190600101906200016a565b5b5090506200019791906200019b565b5090565b5b80821115620001b65760008160009055506001016200019c565b5090565b60006002820490506001821680620001d357607f821691505b60208210811415620001ea57620001e9620001f0565b5b50919050565b7f4e487b7100000000000000000000000000000000000000000000000000000000600052602260045260246000fd5b6115e7806200022f6000396000f3fe6080604052600436106100a75760003560e01c806370a082311161006457806370a08231146101e457806395d89b4114610221578063a457c2d71461024c578063a9059cbb14610289578063dd62ed3e146102c6578063f088d54714610303576100a7565b806306fdde03146100ac578063095ea7b3146100d757806318160ddd1461011457806323b872dd1461013f578063313ce5671461017c57806339509351146101a7575b600080fd5b3480156100b857600080fd5b506100c1610333565b6040516100ce9190610fc1565b60405180910390f35b3480156100e357600080fd5b506100fe60048036038101906100f99190610dc9565b6103c5565b60405161010b9190610fa6565b60405180910390f35b34801561012057600080fd5b506101296103e1565b6040516101369190611103565b60405180910390f35b34801561014b57600080fd5b5061016660048036038101906101619190610d7a565b6103eb565b6040516101739190610fa6565b60405180910390f35b34801561018857600080fd5b50610191610413565b60405161019e919061111e565b60405180910390f35b3480156101b357600080fd5b506101ce60048036038101906101c99190610dc9565b61041c565b6040516101db9190610fa6565b60405180910390f35b3480156101f057600080fd5b5061020b60048036038101906102069190610d15565b61044c565b6040516102189190611103565b60405180910390f35b34801561022d57600080fd5b50610236610494565b6040516102439190610fc1565b60405180910390f35b34801561025857600080fd5b50610273600480360381019061026e9190610dc9565b610526565b6040516102809190610fa6565b60405180910390f35b34801561029557600080fd5b506102b060048036038101906102ab9190610dc9565b610596565b6040516102bd9190610fa6565b60405180910390f35b3480156102d257600080fd5b506102ed60048036038101906102e89190610d3e565b6105b2565b6040516102fa9190611103565b60405180910390f35b61031d60048036038101906103189190610d15565b610639565b60405161032a9190611103565b60405180910390f35b6060600380546103429061128d565b80601f016020809104026020016040519081016040528092919081815260200182805461036e9061128d565b80156103bb5780601f10610390576101008083540402835291602001916103bb565b820191906000526020600020905b81548152906001019060200180831161039e57829003601f168201915b5050505050905090565b6000803390506103d68185856106a9565b600191505092915050565b6000600254905090565b6000803390506103fc858285610874565b610407858585610900565b60019150509392505050565b60006012905090565b60008033905061044181858561043285896105b2565b61043c9190611155565b6106a9565b600191505092915050565b60008060008373ffffffffffffffffffffffffffffffffffffffff1673ffffffffffffffffffffffffffffffffffffffff168152602001908152602001600020549050919050565b6060600480546104a39061128d565b80601f01602080910402602001604051908101604052809291908181526020018280546104cf9061128d565b801561051c5780601f106104f15761010080835404028352916020019161051c565b820191906000526020600020905b8154815290600101906020018083116104ff57829003601f168201915b5050505050905090565b600080339050600061053882866105b2565b90508381101561057d576040517f08c379a0000000000000000000000000000000000000000000000000000000008152600401610574906110c3565b60405180910390fd5b61058a82868684036106a9565b60019250505092915050565b6000803390506105a7818585610900565b600191505092915050565b6000600160008473ffffffffffffffffffffffffffffffffffffffff1673ffffffffffffffffffffffffffffffffffffffff16815260200190815260200160002060008373ffffffffffffffffffffffffffffffffffffffff1673ffffffffffffffffffffffffffffffffffffffff16815260200190815260200160002054905092915050565b600080341161067d576040517f08c379a000000000000000000000000000000000000000000000000000000000815260040161067490611063565b60405180910390fd5b610694826103e83461068f91906111ab565b610b81565b6103e8346106a291906111ab565b9050919050565b600073ffffffffffffffffffffffffffffffffffffffff168373ffffffffffffffffffffffffffffffffffffffff161415610719576040517f08c379a0000000000000000000000000000000000000000000000000000000008152600401610710906110a3565b60405180910390fd5b600073ffffffffffffffffffffffffffffffffffffffff168273ffffffffffffffffffffffffffffffffffffffff161415610789576040517f08c379a000000000000000000000000000000000000000000000000000000000815260040161078090611003565b60405180910390fd5b80600160008573ffffffffffffffffffffffffffffffffffffffff1673ffffffffffffffffffffffffffffffffffffffff16815260200190815260200160002060008473ffffffffffffffffffffffffffffffffffffffff1673ffffffffffffffffffffffffffffffffffffffff168152602001908152602001600020819055508173ffffffffffffffffffffffffffffffffffffffff168373ffffffffffffffffffffffffffffffffffffffff167f8c5be1e5ebec7d5bd14f71427d1e84f3dd0314c0f7b2291e5b200ac8c7c3b925836040516108679190611103565b60405180910390a3505050565b600061088084846105b2565b90507fffffffffffffffffffffffffffffffffffffffffffffffffffffffffffffffff81146108fa57818110156108ec576040517f08c379a00000000000000000000000000000000000000000000000000000000081526004016108e390611023565b60405180910390fd5b6108f984848484036106a9565b5b50505050565b600073ffffffffffffffffffffffffffffffffffffffff168373ffffffffffffffffffffffffffffffffffffffff161415610970576040517f08c379a000000000000000000000000000000000000000000000000000000000815260040161096790611083565b60405180910390fd5b600073ffffffffffffffffffffffffffffffffffffffff168273ffffffffffffffffffffffffffffffffffffffff1614156109e0576040517f08c379a00000000000000000000000000000000000000000000000000000000081526004016109d790610fe3565b60405180910390fd5b6109eb838383610ce1565b60008060008573ffffffffffffffffffffffffffffffffffffffff1673ffffffffffffffffffffffffffffffffffffffff16815260200190815260200160002054905081811015610a71576040517f08c379a0000000000000000000000000000000000000000000000000000000008152600401610a6890611043565b60405180910390fd5b8181036000808673ffffffffffffffffffffffffffffffffffffffff1673ffffffffffffffffffffffffffffffffffffffff16815260200190815260200160002081905550816000808573ffffffffffffffffffffffffffffffffffffffff1673ffffffffffffffffffffffffffffffffffffffff1681526020019081526020016000206000828254610b049190611155565b925050819055508273ffffffffffffffffffffffffffffffffffffffff168473ffffffffffffffffffffffffffffffffffffffff167fddf252ad1be2c89b69c2b068fc378daa952ba7f163c4a11628f55a4df523b3ef84604051610b689190611103565b60405180910390a3610b7b848484610ce6565b50505050565b600073ffffffffffffffffffffffffffffffffffffffff168273ffffffffffffffffffffffffffffffffffffffff161415610bf1576040517f08c379a0000000000000000000000000000000000000000000000000000000008152600401610be8906110e3565b60405180910390fd5b610bfd60008383610ce1565b8060026000828254610c0f9190611155565b92505081905550806000808473ffffffffffffffffffffffffffffffffffffffff1673ffffffffffffffffffffffffffffffffffffffff1681526020019081526020016000206000828254610c649190611155565b925050819055508173ffffffffffffffffffffffffffffffffffffffff16600073ffffffffffffffffffffffffffffffffffffffff167fddf252ad1be2c89b69c2b068fc378daa952ba7f163c4a11628f55a4df523b3ef83604051610cc99190611103565b60405180910390a3610cdd60008383610ce6565b5050565b505050565b505050565b600081359050610cfa81611583565b92915050565b600081359050610d0f8161159a565b92915050565b600060208284031215610d2757600080fd5b6000610d3584828501610ceb565b91505092915050565b60008060408385031215610d5157600080fd5b6000610d5f85828601610ceb565b9250506020610d7085828601610ceb565b9150509250929050565b600080600060608486031215610d8f57600080fd5b6000610d9d86828701610ceb565b9350506020610dae86828701610ceb565b9250506040610dbf86828701610d00565b9150509250925092565b60008060408385031215610ddc57600080fd5b6000610dea85828601610ceb565b9250506020610dfb85828601610d00565b9150509250929050565b610e0e81611217565b82525050565b6000610e1f82611139565b610e298185611144565b9350610e3981856020860161125a565b610e428161131d565b840191505092915050565b6000610e5a602383611144565b9150610e658261132e565b604082019050919050565b6000610e7d602283611144565b9150610e888261137d565b604082019050919050565b6000610ea0601d83611144565b9150610eab826113cc565b602082019050919050565b6000610ec3602683611144565b9150610ece826113f5565b604082019050919050565b6000610ee6601f83611144565b9150610ef182611444565b602082019050919050565b6000610f09602583611144565b9150610f148261146d565b604082019050919050565b6000610f2c602483611144565b9150610f37826114bc565b604082019050919050565b6000610f4f602583611144565b9150610f5a8261150b565b604082019050919050565b6000610f72601f83611144565b9150610f7d8261155a565b602082019050919050565b610f9181611243565b82525050565b610fa08161124d565b82525050565b6000602082019050610fbb6000830184610e05565b92915050565b60006020820190508181036000830152610fdb8184610e14565b905092915050565b60006020820190508181036000830152610ffc81610e4d565b9050919050565b6000602082019050818103600083015261101c81610e70565b9050919050565b6000602082019050818103600083015261103c81610e93565b9050919050565b6000602082019050818103600083015261105c81610eb6565b9050919050565b6000602082019050818103600083015261107c81610ed9565b9050919050565b6000602082019050818103600083015261109c81610efc565b9050919050565b600060208201905081810360008301526110bc81610f1f565b9050919050565b600060208201905081810360008301526110dc81610f42565b9050919050565b600060208201905081810360008301526110fc81610f65565b9050919050565b60006020820190506111186000830184610f88565b92915050565b60006020820190506111336000830184610f97565b92915050565b600081519050919050565b600082825260208201905092915050565b600061116082611243565b915061116b83611243565b9250827fffffffffffffffffffffffffffffffffffffffffffffffffffffffffffffffff038211156111a05761119f6112bf565b5b828201905092915050565b60006111b682611243565b91506111c183611243565b9250817fffffffffffffffffffffffffffffffffffffffffffffffffffffffffffffffff04831182151516156111fa576111f96112bf565b5b828202905092915050565b600061121082611223565b9050919050565b60008115159050919050565b600073ffffffffffffffffffffffffffffffffffffffff82169050919050565b6000819050919050565b600060ff82169050919050565b60005b8381101561127857808201518184015260208101905061125d565b83811115611287576000848401525b50505050565b600060028204905060018216806112a557607f821691505b602082108114156112b9576112b86112ee565b5b50919050565b7f4e487b7100000000000000000000000000000000000000000000000000000000600052601160045260246000fd5b7f4e487b7100000000000000000000000000000000000000000000000000000000600052602260045260246000fd5b6000601f19601f8301169050919050565b7f45524332303a207472616e7366657220746f20746865207a65726f206164647260008201527f6573730000000000000000000000000000000000000000000000000000000000602082015250565b7f45524332303a20617070726f766520746f20746865207a65726f20616464726560008201527f7373000000000000000000000000000000000000000000000000000000000000602082015250565b7f45524332303a20696e73756666696369656e7420616c6c6f77616e6365000000600082015250565b7f45524332303a207472616e7366657220616d6f756e742065786365656473206260008201527f616c616e63650000000000000000000000000000000000000000000000000000602082015250565b7f616d6f7574206d7573742062652067726561746572207468616e207a65726f00600082015250565b7f45524332303a207472616e736665722066726f6d20746865207a65726f20616460008201527f6472657373000000000000000000000000000000000000000000000000000000602082015250565b7f45524332303a20617070726f76652066726f6d20746865207a65726f2061646460008201527f7265737300000000000000000000000000000000000000000000000000000000602082015250565b7f45524332303a2064656372656173656420616c6c6f77616e63652062656c6f7760008201527f207a65726f000000000000000000000000000000000000000000000000000000602082015250565b7f45524332303a206d696e7420746f20746865207a65726f206164647265737300600082015250565b61158c81611205565b811461159757600080fd5b50565b6115a381611243565b81146115ae57600080fd5b5056fea26469706673582212200f892dc99fc000d3e55f3c8107b5e17fb86544de8e34def47967111cd0edde8564736f6c63430008040033",
  "linkReferences": {},
  "deployedLinkReferences": {}
}